:1000000078C092C091C090C08FC08EC08DC08DC08E
:100010008BC08AC089C088C087C086C085C084C0A4
:1000200083C082C0F3CB80C07FC07EC07DC07CC057
:100030007BC07AC02357656174686572204C6F6716
:100040006765723500636C6F636B20686F757273E0
:100050002F6D696E73004D2D696E74657276616CDB
:100060002F4D2D62756600554152542D636F6E748D
:10007000726F6C3E555342002320683D68656C707A
:100080002F613D73686F772D702F70233D707269FB
:100090006E74232F6D233D7365742D666D232F635E
:1000A0003D636C6561722F783D65786974005553C6
:1000B00042206E6F7420636F6E6E656374640055CA
:1000C00053422D5541525420616374697665200076
:1000D000436C656172206D6561732E627566662E74
:1000E000005357323D636F6E742E5357333D726524
:1000F000740011241FBECFEFD4E0DEBFCDBF12E0ED
:10010000A0E0B1E0E8ECFEE102C005900D92A43160
:10011000B107D9F712E0A4E1B2E001C01D92A33A01
:10012000B107E1F78FD6CECE6BCF1F920F920FB6ED
:100130000F9211241F932F933F934F935F936F93CD
:100140007F938F939F93AF93BF93EF93FF9381E040
:100150008093140210928100809184009091850018
:1001600090939E0280939D021092850010928400CD
:1001700087E080938100809116028F5F8093160242
:10018000809116028C33E9F51092160280911702C5
:100190008F5F80931702809117028C3339F410928D
:1001A0001702809118028F5F8093180280911802C5
:1001B000883111F4109218028091A002882309F16D
:1001C00040E011E01AC0209117026091A00230E0D7
:1001D000E42FF0E08CE390E070E016DEE69FC001D3
:1001E000E79F900DF69F900D11242817390721F4F1
:1001F0001093150240939F024F5F8091A002481711
:1002000010F3FF91EF91BF91AF919F918F917F91EB
:100210006F915F914F913F912F911F910F900FBE62
:100220000F901F90189580E28093B60085E0809330
:10023000B10082E08093700008958FE384B915B80F
:1002400088E087B980E388B990E89AB98CE18BB9E6
:1002500090BF0895AF92BF92CF92DF92EF92FF923C
:100260000F931F93A0904102B0904202C0904302AE
:10027000D090440280912D0290912E02A0912F02E5
:10028000B0913002A81AB90ACA0ADB0AD7FC03C027
:10029000E090390202C0E0903A02A6019501E7E041
:1002A0005595479537952795EA95D1F7CA01B90134
:1002B0008CDD2E2D30E040E050E087DD00903B02E9
:1002C00004C095958795779567950A94D2F7A61AF5
:1002D000B70AC80AD90AA0924502B0924602C09253
:1002E0004702D09248022091290230912A0240917F
:1002F0002B0250912C022050344040405040C60107
:10030000B50163DD7B018C017EE015950795F794BF
:10031000E7947A95D1F78091210290912202A091E1
:100320002302B0912402E80EF91E0A1F1B1F62E08F
:10033000EE0CFF1C001F111F6A95D1F7E0924902D5
:10034000F0924A0200934B0210934C022091250236
:10035000309126024091270250912802C601B50132
:1003600034DD5AE095958795779567955A95D1F73D
:1003700020911D0230911E0240911F0250912002D7
:10038000620F731F841F951F60934D0270934E027E
:1003900080934F029093500220913D0230913E0293
:1003A00040913F025091400220503C41404050401B
:1003B0000CDD4EE095958795779567954A95D1F731
:1003C0006E197F09800B910B60935102709352025A
:1003D00080935302909354022AE030E040E050E0D2
:1003E000F4DC35E095958795779567953A95D1F743
:1003F0002091350230913602260F371F3093580274
:100400002093570220913102309132024091330201
:1004100050913402C601B501D8DCBC01992777FDA3
:100420009095892F00903C0204C0D594C794B7944E
:10043000A7940A94D2F76A197B0966507F4F70938C
:100440005602609355021F910F91FF90EF90DF903D
:10045000CF90BF90AF9008950F931F932EEA2093F3
:100460007402B3E0880F991FBA95E1F79093910257
:1004700080939002809191028093750201E912E0CD
:10048000F80182918F01809376024BE064E772E07D
:1004900082E029D88091770280939102209178029E
:1004A000F80120838091900290919102A3E09695AB
:1004B0008795AA95E1F79093880280938702277029
:1004C00020938A0280917902982F96959695969519
:1004D00090938B0287708093890280917A02809337
:1004E0005D0280917B028093910280917C028083E7
:1004F00080919002909191029093560280935502C0
:1005000080917D028093910280917E028083809110
:1005100090029091910290935802809357021F91FC
:100520000F9108958EEA809374021092750283E011
:100530008093760248E064E772E082E0D4D780914D
:1005400077028093A0028091780280939102E1E982
:10055000F2E08091790282938091900290919102D1
:10056000909384028093830280917A028093910217
:1005700080917B0280838091900290919102909370
:1005800086028093850208958EEE809374028DEF2B
:10059000809375028FEE8093760245E064E772E007
:1005A00082E0A1D77091770270938D0260917802FA
:1005B00060938C0210928F0210928E0280918E02B4
:1005C00090918F020895809374026093750244E0C5
:1005D00064E772E081E087D77091760270938D02B4
:1005E0006091770260938C0210928F0210928E02BB
:1005F00080918E0290918F0208954F925F926F9238
:100600007F928F929F92AF92BF92CF92DF92EF92A2
:10061000FF920F931F93CF93DF93F82E83DF809188
:100620008302909184029F938F9380E091E09F9347
:100630008F938EE592E09F938F9337D92DB73EB776
:100640002A5F3F4F0FB6F8943EBF0FBE2DBFFF206D
:1006500011F083E27ED80EE512E060E0C80185D893
:1006600080911602209117024091180290E09F930A
:100670008F9330E03F932F9350E05F934F9383E14C
:1006800091E09F938F931F930F930FD961E0C8015F
:100690006CD8C1E0D0E08DB79EB70A960FB6F8943B
:1006A0009EBF0FBE8DBF54E6E52E43E3442E41E0CE
:1006B000542E32E2632E31E0732E21E6822E21E0A9
:1006C000922E9CE3A92E91E0B92E8BE4C82E81E0F6
:1006D000D82EB2C0CE01C0DE60918A02209189027C
:1006E00092E0F91629F18CE390E070E08DDB822F27
:1006F00090E09C01629FC001639F900D729F900DDE
:1007000011249F938F9380918B0290E09F938F93FE
:10071000DF93CF937F926F921F930F93C6D88DB7BD
:100720009EB70A960FB6F8949EBF0FBE8DBF1BC032
:100730002E9DC001112470E067DB7F936F93809141
:100740008702909188029F938F935F924F921F939D
:100750000F93ABD82DB73EB7285F3F4F0FB6F89435
:100760003EBF0FBE2DBF60E08EE592E0FED7E09168
:100770005502F0915602FF20E9F5CF016AE070E0E2
:1007800043DB97FF03C0909581959F4F9F938F9375
:10079000CF016AE070E038DB7F936F93BF92AF9236
:1007A0001F930F9382D860E08EE592E0DED7209110
:1007B000570230915802C9016AE070E025DB9F932F
:1007C0008F93C9016AE070E01FDB7F936F93809184
:1007D0005D0290E09F938F93DF92CF921F930F93D0
:1007E00064D88DB79EB742960FB6F8949EBF0FBEE1
:1007F0008DBF1BC080915702909158029F938F9399
:1008000080915D0290E09F938F93FF93EF939F926F
:100810008F921F930F9349D82DB73EB7265F3F4F56
:100820000FB6F8943EBF0FBE2DBF61E08EE592E09B
:100830009CD74C9B09C021968091830290918402A1
:100840008C179D0708F046CFDF91CF911F910F9134
:10085000FF90EF90DF90CF90BF90AF909F908F90E0
:100860007F906F905F904F9008950F931F93CF9359
:10087000DF9381E0F9D4CEE5D2E0CE01FCD48091C3
:100880008202882309F040C0E0915502F09156029F
:10089000CF016AE070E0B8DA97FF03C090958195C8
:1008A0009F4F9F938F93CF016AE070E0ADDA7F9303
:1008B0006F938EE691E09F938F930EE512E01F9366
:1008C0000F93F3D7C801D7D4209157023091580223
:1008D000C9016AE070E098DA9F938F93C9016AE0DA
:1008E00070E092DA7F936F9380915D0290E09F9326
:1008F0008F9387E791E09F938F931F930F93D5D7A3
:100900008DB79EB7429616C080918502909186025F
:100910009F938F9380918302909184029F938F93F2
:100920008CE891E09F938F93DF93CF93BED78DB7E1
:100930009EB708960FB6F8949EBF0FBE8DBF82E09B
:1009400093D48EE592E097D4DF91CF911F910F91D0
:1009500008951F938091160280FF06C08091A00227
:10096000882311F010E201C01AE381E073D4809172
:10097000160220911702612F70E04091180290E05A
:100980009F938F937F936F9330E03F932F937F9349
:100990006F9350E05F934F9383E991E09F938F9320
:1009A0008EE592E09F938F9380D75FDF8DB79EB7E0
:1009B0000E960FB6F8949EBF0FBE8DBF8091800239
:1009C000813069F44A9B04C04B9B02C04C9907C01C
:1009D000109280021092820284E6809381028091BC
:1009E0008202882309F04FC04B9923C0809157029F
:1009F000909158029F938F9380914102909142026F
:100A00009F938F9380913D0290913E029F938F938D
:100A100085EA91E09F938F938EE592E09F938F9369
:100A200044D78DB79EB70A960FB6F8949EBF0FBEF7
:100A30008DBF4C9923C020919D0230919E028091E0
:100A4000590290915A029F938F9380915B029091EB
:100A50005C029F938F933F932F9386EB91E09F933C
:100A60008F938EE592E09F938F931FD78DB79EB79C
:100A70000A960FB6F8949EBF0FBE8DBF82E0F4D3E6
:100A80008EE592E0F8D31F910895BF92CF92DF9246
:100A9000EF92FF920F931F93CF93DF9343DD8091EB
:100AA0008302909184029F938F9387EC91E09F93B0
:100AB0008F930EE512E01F930F93F7D681E0D4D306
:100AC000C801D9D382E0D0D381EE90E0DFD320E11A
:100AD00037E28DB79EB706960FB6F8949EBF0FBE4D
:100AE0008DBF49E150E0CA010197F1F72150304034
:100AF000D1F704C0C9010197F1F702C028EA31E635
:100B00004B9B02C04C99F6CF4B9943C0C1E0D0E05B
:100B1000EAE0BE2E77EDC72E71E0D72E6EE5E62E09
:100B200062E0F62E09E110E02DC0CE0195DC809147
:100B3000890260918A028B9DC001112470E064D902
:100B40007F936F9380918B0290E09F938F93DF93BD
:100B5000CF93DF92CF92FF92EF92A7D686DE80E20C
:100B60009EE42DB73EB7265F3F4F0FB6F8943EBFC9
:100B70000FBE2DBFF8013197F1F70197D9F74C9BC4
:100B800008C0219680918302909184028C179D0762
:100B900060F6DF91CF911F910F91FF90EF90DF9062
:100BA000CF90BF90089582E05FD38EE592E063D34B
:100BB00088E893E129E130E0F9013197F1F70197F5
:100BC000D9F708951F93CF93DF93182FABDC809153
:100BD000A00220918302309184023F932F9390E0F2
:100BE0009F938F9384EE91E09F938F93CEE5D2E015
:100BF000DF93CF935AD68DB79EB708960FB6F89469
:100C00009EBF0FBE8DBF112311F4CDDF07C083E25D
:100C1000A0D580E29ED561E0CE01A7D5DF91CF912E
:100C20001F910895CF92DF92EF92FF920F931F933F
:100C3000439AA4E7EA2EA2E0FA2EFEEECF2EC0924F
:100C40007402DD24DA94D092750280EF80937602EC
:100C500063E0C701F9D300E117E2C8010197F1F79A
:100C600093DC60933D0270933E0280933F02909329
:100C70004002C0927402D092750288EE8093760290
:100C800063E0C701E1D3C8010197F1F77DDC609310
:100C9000410270934202809343029093440243982E
:100CA0001F910F91FF90EF90DF90CF9008958EEA03
:100CB000809374021092750283E080937602809193
:100CC000A002809377028091830290918402909396
:100CD0009102809390028091910280937802E1E9E1
:100CE000F2E0829180937902809185029091860250
:100CF00090939102809390028091910280937A0266
:100D0000808180937B0268E084E792E09DD38EEA45
:100D1000A5D408950F931F938EEA80937402809157
:100D200083029091840213E0880F991F1A95E1F7CE
:100D3000909391028093900280919102809375022A
:100D4000809190028093760280911702882349F463
:100D500080918502909186020196909386028093FD
:100D600085022091A0028091850290918602B3E0D5
:100D7000880F991FBA95E1F7820F911D9093910208
:100D800080939002809191028093770280919002EB
:100D9000809378028091180290919F02880F880FAB
:100DA000880F890F8093790280915D0280937A0287
:100DB00080915502909156029093910280939002F7
:100DC0008091910280937B028091900280937C02BB
:100DD00080915702909158029093910280939002D3
:100DE0008091910280937D028091900280937E0297
:100DF0006BE084E792E028D38EEA30D458DF80910C
:100E0000180290E09F938F938091830290918402C7
:100E10009F938F9385EF91E09F938F930EE512E060
:100E20001F930F9342D581E01FD2C80124D28DB702
:100E30009EB708960FB6F8949EBF0FBE8DBF1F9148
:100E40000F9108959F92AF92BF92CF92DF92EF924F
:100E5000FF920F931F93CF93DF938FE384B915B85D
:100E600088E087B980E388B990E89AB98CE18BB9BA
:100E700090BF80E28093B60085E08093B10082E06D
:100E80008093700010D265D27894109280021092F4
:100E9000820284E6809381024398CDE1D2E010E1A2
:100EA000612F80EA90DB69937993899399931E5F10
:100EB0001E31B1F780EA809374021093750246E008
:100EC00064E772E081E00FD3E6E7F2E0A9E3B2E085
:100ED00081918D9382E0EA37F807D1F781E0C4D1A0
:100EE00084E390E0D3D180E06DDE80E29EE429E1EE
:100EF00030E0F9013197F1F70197D9F700E010E000
:100F000069E1A62EB12C58EAE52E51E6F52E46E011
:100F1000942E3EEFC32E31E0D32ECEE5D2E011C0A9
:100F20005F9AF89483B7817F90918202892B83BF67
:100F300083B7816083BF7894889583B78E7F83BFA2
:100F40005F9880911402882359F3002329F04A9B6B
:100F500003C01F5F00E002C04A9B01E0123009F4A9
:100F6000B5C0133028F4112359F0113039F476C08C
:100F7000133009F4CCC0143009F441C110E0E1CFC2
:100F80001092140280918002813069F480911602DF
:100F9000882321F0809116028B3319F4109282027B
:100FA00002C090928202809182028823C9F53ADEC3
:100FB00051D96AE082EA07DB70935A0260935902C2
:100FC0006CE082EA00DB70935C0260935B0220912C
:100FD0009D0230919E02882777FD8095982F40E0F2
:100FE00050E0621B730B840B950B209159023091DA
:100FF0005A02442737FD4095542FE7D62CE09595AB
:101000008795779567952A95D1F760935D028091D2
:101010008002882329F4809181028150809381028B
:1010200098DC8091A002882381F0809115028823AA
:1010300061F01092150280918302909184020196D2
:10104000909384028093830265DE809181028823DD
:1010500009F077CF81E08093800273CF81E004D1E3
:1010600085E490E013D14B9905C0809118028F5F01
:101070008093180280911802883110F010921802A3
:101080004C9905C0809117028F5F80931702809161
:1010900017028C3310F010921702809117022091E2
:1010A000180290E09F938F9330E03F932F93DF924D
:1010B000CF92DF93CF93F9D376DD8DB79EB70896A5
:1010C0000FB6F8949EBF0FBE8DBF3BCF4B990CC09F
:1010D0008091A0028F5F8093A0028091A002873050
:1010E00010F01092A002E3DD4C9909C01092840226
:1010F000109283021092860210928502D8DD81E060
:10110000B3D086E590E0C2D080E05CDD1ACF81E00C
:10111000A1D081E0A9D087E690E0B8D04E9B60C016
:1011200082E0A2D081EE90E0B1D003C0C701019768
:10113000F1F74B9B02C04C99F9CF4B9951C082E01B
:1011400093D08FEB90E0A2D0E4D284E390E010C083
:1011500083E2FFD28EE3FDD292D3DC01FC018191C8
:10116000F0937302E0937202883621F488E790E0EE
:1011700024D334C08136F1F0803769F411968C9114
:101180003196F0937302E09372028053833008F03B
:1011900080E033DA23C08D3681F411968C9131963C
:1011A000F0937302E09372028053873018F48093B7
:1011B000A0027DDD81E006DD11C0833669F480ED9B
:1011C00090E0FBD210928402109283021092860269
:1011D000109285026CDD02C0883711F04C99B8CFAF
:1011E000AFD282E041D08EEA90E050D080E29EE41F
:1011F000F5013197F1F70197D9F714E0A2CE45DC5C
:1012000015E09FCE282F662311F02D9A01C02D984E
:1012100085B1922F92959F70807F982B95B92C9ACB
:1012200081E2982F9A95F1F72C988A95F1F7662329
:1012300011F02D9A01C02D9885B12F70807F822BDF
:1012400085B92C9A81E2982F9A95F1F72C988A9576
:10125000F1F7089560E0D6DF84EF91E00197F1F7B0
:10126000089561E0CFDF0895813011F482E001C07C
:1012700080ECF0DF0895CF93DF93EC0101C0F1DF44
:1012800089918823E1F7DF91CF910895CF93DF9380
:10129000EC0101C0E6DFFE01219684918823D1F79D
:1012A000DF91CF91089584B18F6084B9259A2D98EC
:1012B000249A2C9884E294EF0197F1F72D9885B148
:1012C000807F836085B92C9A91E2892F8A95F1F706
:1012D0002C98892F8A95F1F72D9885B1807F8360AE
:1012E00085B92C9A892F8A95F1F72C98892F8A95A0
:1012F000F1F72D9885B1807F836085B92C9A892F6D
:101300008A95F1F72C98892F8A95F1F72D9885B158
:10131000807F826085B92C9A892F8A95F1F72C9865
:101320009A95F1F789E296DF84E194DF85E592DF13
:101330008DE690DF8FE78EDF88E28CDF88E08ADF42
:101340008CE088DF86E086DF82E084DF81E082DF78
:1013500008958CE38093BA001092B80084E08093E3
:10136000BC0081E008958091BC0087FFFCCF089508
:1013700084EA8093BC008091BC0087FFFCCF809101
:10138000B900883039F08091B900803119F080912E
:10139000B90008958FEF089584E98093BC00089503
:1013A000982F8091BC0087FFFCCF9093BB0084E80E
:1013B0008093BC008091BC0087FFFCCF8091B90076
:1013C000883211F48FEF08958091B9000895982F15
:1013D0008091BC0087FFFCCF9093BB0084E8809392
:1013E000BC008091BC0087FFFCCF8091B9008831A0
:1013F00039F08091B900803419F08091B9000895D6
:101400008FEF0895FC018091BC0087FFFCCF66231D
:1014100011F484EC01C084E88093BC008091BC008E
:1014200087FFFCCF8091BB0080838091B900883515
:1014300011F4662339F48091B900803519F0809158
:10144000B90008958FEF0895FC0184EA8093BC00F1
:101450008091BC0087FFFCCF8091B900883041F0BB
:101460008091B900803121F09091B9009F3FD1F473
:1014700090818091BC0087FFFCCF9093BB0084E8F3
:101480008093BC008091BC0087FFFCCF8091B900A5
:10149000883139F08091B900803419F09091B90009
:1014A00001C09FEF31E044E815C021818091BC006C
:1014B00087FFFCCF2093BB004093BC008091BC0011
:1014C00087FFFCCF8091B900883211F09091B9006C
:1014D0003F5F3196361710F49F3F39F384E98093CC
:1014E000BC00892F0895EF92FF920F931F93CF9323
:1014F000DF93982F7B01042F84EA8093BC008091B6
:10150000BC0087FFFCCF8091B900883041F080910A
:10151000B900803121F02091B9002F3F91F5F701FA
:1015200020818091BC0087FFFCCF2093BB0084E822
:101530008093BC008091BC0087FFFCCF8091B900F4
:10154000883141F08091B900803421F02091B900B8
:101550002F3FB9F4F70121818091BC0087FFFCCFB8
:101560002093BB0084E88093BC008091BC0087FF7F
:10157000FCCF8091B900883211F42FEF02C0209186
:10158000B9009230C1F42F3F09F046C0F701228123
:101590008091BC0087FFFCCF2093BB0084E8809340
:1015A000BC008091BC0087FFFCCF8091B9008832DD
:1015B00021F02091B9002F3F79F584EA8093BC0097
:1015C0008091BC0087FFFCCF8091B900883041F04A
:1015D0008091B900803121F02091B9002F3FE1F4D2
:1015E000F70120818091BC0087FFFCCF2F5F209303
:1015F000BB0084E88093BC008091BC0087FFFCCFD7
:101600008091B900883139F08091B900803419F0A7
:101610002091B90001C02FEF192F1F5FC02FD0E01C
:1016200021970DC060E0812F90E08C179D070CF092
:1016300061E0C701810F911DE5DE282F1F5F1017A4
:1016400010F42F3F79F384E98093BC00822FDF915F
:10165000CF911F910F91FF90EF900895982F84EAFA
:101660008093BC008091BC0087FFFCCF8091B900C3
:10167000883031F08091B900803111F08091B9004B
:101680008091BC0087FFFCCF9093BB0084E88093DF
:10169000BC008091BC0087FFFCCF8091B9008831ED
:1016A00031F08091B900803411F08091B90084E963
:1016B0008093BC0034EA24E83093BC008091BC00E5
:1016C00087FFFCCF8091B900883031F08091B9005C
:1016D000803111F08091B9008091BC0087FFFCCF70
:1016E0009093BB002093BC008091BC0087FFFCCF8F
:1016F0008091B900883141F08091B900803421F0A7
:101700008091B9008F3FC1F684E98093BC008FEFD0
:10171000089582E08093C00088E98093C10086E04C
:101720008093C2008CE090E09093C5008093C40049
:101730001092A1021092920281E08093A202089579
:101740001092C1001092A2021092A1021092920275
:101750000895982F8091A202882331F08091C000D3
:1017600085FFFCCF9093C6000895FC010AC08091CC
:10177000A202882331F08091C00085FFFCCF9093B6
:10178000C6009191992399F76623B1F08091A20246
:10179000882339F08091C00085FFFCCF8DE08093D5
:1017A000C6008091A202882339F08091C00085FF95
:1017B000FCCF8AE08093C60008959C010AC0809106
:1017C000A202882331F08091C00085FFFCCF909366
:1017D000C600F9012F5F3F4F9491992381F78091C3
:1017E000A202882339F08091C00085FFFCCF8DE0F4
:1017F0008093C6008091A202882339F08091C000B6
:1018000085FFFCCF8AE08093C60008951F920F9257
:101810000FB60F9211248F939F93EF93FF938091B4
:10182000A202882319F18091A1028823F9F49091F2
:10183000C600903208F490E080919202E82FF0E028
:10184000ED56FD4F90838F5F8093920280919202BC
:10185000893028F0809192028150809392029923DE
:1018600029F481E08093A10210929202FF91EF91FE
:101870009F918F910F900FBE0F901F90189510920F
:1018800092021092A10228E791E008C04C9906C08C
:1018900020939302109294029093A1028091A1024E
:1018A0008823A1F383E992E00895AEE0B0E0EAE591
:1018B000FCE0DFC20D891E8986E08C831A830983D0
:1018C0008FEF9FE79E838D83CE014996AC016F8990
:1018D000788DCE01019609D02F813885020F131F14
:1018E000F80110822E96E4E0E0C2ABE0B0E0EAE757
:1018F000FCE0B1C23C012B015A01FC0117821682A7
:10190000838181FD03C06FEF7FEFBBC19AE0892E19
:101910001E010894211C311CF3012381F20123FDD7
:10192000859123FF81912F01882309F4A7C1853276
:1019300039F423FD859123FF81912F01853221F414
:10194000B30190E0B8D1E8CF982FDD24CC249924BE
:10195000FFE1FD15D0F09B3269F09C3228F4903203
:1019600059F0933291F40EC09D3249F0903369F4EE
:1019700041E024C052E0D52A84E0D82A28C098E06B
:10198000D92A25C0E0E1DE2A22C0D7FC29C0892F50
:1019900080538A3070F4D6FE05C0989C902C112498
:1019A000980E15C0C89CC02C1124C80EF0E2DF2A86
:1019B0000EC09E3229F4D6FC61C140E4D42A07C08F
:1019C0009C3619F450E8D52A02C0983649F4F20141
:1019D00023FD959123FF91912F01992309F0B8CF11
:1019E000892F8554833018F08052833038F444E0D6
:1019F00050E0A40EB51E5FE359830FC0933631F05B
:101A0000933779F0933509F052C01FC0F5018081FA
:101A1000898342E050E0A40EB51E710101E010E0A0
:101A200011C0F501E080F180D6FC03C06FEF7FEFBD
:101A300002C0692D70E042E050E0A40EB51EC7015F
:101A40002FD18C015FE7D52213C0F501E080F18032
:101A5000D6FC03C06FEF7FEF02C0692D70E042E05B
:101A600050E0A40EB51EC70110D18C0150E8D52A54
:101A7000D3FE06C018C0B30180E290E01CD1CA9426
:101A80008C2D90E008171907B0F30DC0F701D7FCB3
:101A90008591D7FE81917F01B30190E00CD1C110F7
:101AA000CA94015010400115110581F7E4C0943625
:101AB00011F0993669F5D7FE08C0F501E080F18094
:101AC0000281138144E050E00AC0F50180819181D8
:101AD0007C010027F7FC0095102F42E050E0A40E97
:101AE000B51E5FE6D52217FF0AC010950095F09449
:101AF000E094E11CF11C011D111D80E8D82A2AE0A8
:101B000030E0A101C801B70102D1F82EF2183FC0A0
:101B1000953729F41D2D1F7E2AE030E01DC01D2DB4
:101B2000197F9F3661F0903720F4983509F0A6C0F0
:101B30000FC0903739F0983709F0A0C004C028E0F2
:101B400030E00AC0106114FD146020E130E004C0F0
:101B500014FD166020E132E017FF08C0F501608136
:101B600071818281938144E050E008C0F501808159
:101B70009181BC0180E090E042E050E0A40EB51EEF
:101B8000A101C5D0F82EF2188FE7D82ED122D6FEAB
:101B90000BC05EEFD522F91438F4D4FE07C0D2FC96
:101BA00005C08FEED82202C01F2D01C0192DD4FE12
:101BB0000DC0FE01EF0DF11D8081803319F499EE07
:101BC000D92208C01F5FD2FE05C003C08D2D8678C4
:101BD00009F01F5F0D2DD3FC13C0D0FE0EC01C15E5
:101BE00010F09F2C0AC09F2C9C0C911A1C2D05C034
:101BF000B30180E290E05FD01F5F1C15C8F304C002
:101C00001C1510F4C11A01C0CC2404FF0FC0B3018D
:101C100080E390E050D002FF1CC001FD03C088E7C4
:101C200090E002C088E590E0B3010CC0802F867878
:101C300081F001FF02C08BE201C080E2D7FC8DE29F
:101C4000B30190E038D005C0B30180E390E033D019
:101C50009A94F914C8F3FA94F101EF0DF11DB30150
:101C6000808190E028D0FF20B1F705C0B30180E269
:101C700090E021D0CA94CC20C9F74ECEF301668102
:101C80007781CB012B96E2E102C1FC010590615006
:101C900070400110D8F7809590958E0F9F1F089582
:101CA000FC016150704001900110D8F7809590952B
:101CB0008E0F9F1F08950F931F93CF93DF938C0177
:101CC000EB018B8181FF1BC082FF0DC02E813F8104
:101CD0008C819D812817390764F4E881F98101938B
:101CE000F983E88306C0E885F985802F0995892B5B
:101CF00031F48E819F8101969F838E8302C00FEF06
:101D00001FEFC801DF91CF911F910F910895FA0144
:101D1000AA27283051F1203181F1E8946F936E7F2A
:101D20006E5F7F4F8F4F9F4FAF4FB1E03ED0B4E01B
:101D30003CD0670F781F891F9A1FA11D680F791F5C
:101D40008A1F911DA11D6A0F711D811D911DA11D6D
:101D500020D009F468943F912AE0269F112430197D
:101D6000305D3193DEF6CF010895462F4770405D18
:101D70004193B3E00FD0C9F7F6CF462F4F70405DC7
:101D80004A3318F0495D31FD4052419302D0A9F722
:101D9000EACFB4E0A6959795879577956795BA951C
:101DA000C9F700976105710508959B01AC010A2EE2
:101DB00006945795479537952795BA95C9F7620FB9
:101DC000731F841F951FA01D0895629FD001739FEC
:101DD000F001829FE00DF11D649FE00DF11D929FC7
:101DE000F00D839FF00D749FF00D659FF00D992706
:101DF000729FB00DE11DF91F639FB00DE11DF91F2A
:101E0000BD01CF011124089597FB092E07260AD0A2
:101E100077FD04D00CD006D000201AF4709561959F
:101E20007F4F0895F6F7909581959F4F0895AA1BCF
:101E3000BB1B51E107C0AA1FBB1FA617B70710F0B5
:101E4000A61BB70B881F991F5A95A9F780959095E7
:101E5000BC01CD0108952F923F924F925F926F92F5
:101E60007F928F929F92AF92BF92CF92DF92EF922A
:101E7000FF920F931F93CF93DF93CDB7DEB7CA1BAB
:101E8000DB0B0FB6F894DEBF0FBECDBF09942A88D6
:101E9000398848885F846E847D848C849B84AA847E
:101EA000B984C884DF80EE80FD800C811B81AA810B
:101EB000B981CE0FD11D0FB6F894DEBF0FBECDBFD6
:081EC000ED010895F894FFCF35
:101EC800253469206D6561737572656D656E74730F
:101ED800202000253032693A253032693A253032DF
:101EE800690025346920253032693A253032693A4B
:101EF8003030002534692E253032690020543D25C4
:101F080033692E256920646567430020483D2532E2
:101F180069252520503D2534692E256920685061A2
:101F2800002025346920253269202535690054258B
:101F380033692E2569F200483D2532692525205050
:101F48003D2533692E2569685061200025346925AF
:101F580034690025303269256325303269256325C7
:101F6800303269200050202530345820253034582C
:101F78002025303458004820253034582025303466
:101F88005820253034580053484F572025346920AD
:101F98006D6561732E200025336920253032692E46
:101FA8002569200025692F686F7572253469206DB1
:101FB8006561732E00253469202530336900686F08
:101FC8007572733D25303269206D696E733D253019
:041FD800326900006A
:00000001FF
